S01600006275696C642F4C4142345F506F6E672E733139A9
S315200000000748854602F060F902F02AF902F092F8D4
S3152000001002F038F801F0D5FA02F064F8FEE70000A5
S315200000200048002080B584B000AF0200FB1D1A7086
S315200000300A4B1A680F217B18127D1A70FA1D7B183D
S3152000004012781B781343DAB2044B1B6804210A4347
S31520000050D2B21A75C046BD4604B080BDC82E002057
S3152000006080B584B000AF0200FB1D1A700E4B1A68D3
S315200000700F217B18127D1A70FB1D1B785BB2DB43A8
S315200000805BB27A18127852B213405AB27B181A70A1
S31520000090054B1B687A18127804210A43D2B21A75C6
S315200000A0C046BD4604B080BDC82E002080B582B0B3
S315200000B000AF0200FB1D1A704020FFF7B3FF064B6E
S315200000C01B68FA1D12785A754020FFF7C9FFC046F3
S315200000D0BD4602B080BDC046C82E002080B582B085
S315200000E000AF4020FFF79EFF064B1A68FB1D527C8F
S315200000F01A704020FFF7B4FFFB1D1B781800BD4681
S3152000010002B080BDC82E002080B582B000AF0200AC
S31520000110FB1D1A700120FFF7A3FF0220FFF7A0FFA7
S31520000120FB1D1B781800FFF7C1FFC046BD4602B075
S3152000013080BD80B582B000AF0200FB1D1A70012081
S31520000140FFF770FF0220FFF78BFFFB1D1B781800BF
S31520000150FFF7ACFFC046BD4602B080BD90B583B068
S3152000016000AF0C4B1B6800225A800120FFF778FF56
S315200001700220FFF757FFFC1DFFF7B0FF0300237097
S31520000180044B1B68044A5A80FB1D1B781800BD4689
S3152000019003B090BDC82E00205555000090B583B001
S315200001A000AF0C4B1B6800225A800120FFF73AFF54
S315200001B00220FFF737FFFC1DFFF790FF0300237097
S315200001C0044B1B68044A5A80FB1D1B781800BD4649
S315200001D003B090BDC82E00205555000080B584B0D0
S315200001E000AFB9607A600F23FB18021C1A70C04654
S315200001F0FFF7B4FF03001A0080231340802BF7D0AB
S31520000200082000F0A3F90F23FB181B781800FFF72E
S315200002107BFF7A68BB6810009847C046BD4604B08D
S3152000022080BD80B584B000AFB9607A600F23FB181B
S31520000230021C1A70C046FFF791FF03001A008023A4
S315200002401340802BF7D0082000F080F90F23FB18ED
S315200002501B781800FFF76DFF7A68BB681000984777
S31520000260C046BD4604B080BD80B500AF0D4B2822E8
S3152000027019003820FFF7B2FF0A4B282219000E205A
S31520000280FFF7ACFF084B022219000120FFF7A6FF5B
S31520000290044B282219000420FFF7A0FFC046BD46C4
S315200002A080BDC0464D0500209305002080B584B052
S315200002B000AF786039607B68013BFB603B68022BAE
S315200002C002D1FB684033FB60FB68DBB280225242DE
S315200002D01343DBB21800FFF717FFC046BD4604B034
S315200002E080BD80B582B000AF0200FB1D1A700549A3
S315200002F0FB1D1B782B221800FFF793FFC046BD4637
S3152000030002B080BD4D05002080B582B000AF786078
S315200003107B681B7C073302211800FFF7C7FF7B6829
S315200003205B69DBB23033DBB21800FFF7DAFFC04679
S31520000330BD4602B080BD80B584B000AF78607B68D2
S315200003401B7C01211800FFF7B1FF7B68FB6006E0EC
S31520000350FB685A1CFA601B781800FFF7C2FFFB687F
S315200003601B78002BF4D1C046C046BD4604B080BDE4
S3152000037090B587B000AF786039607B681800FFF7CA
S31520000380DAFF3B681800FFF7D6FF0C243B19184A02
S3152000039003CA03C37B681B7C02211800FFF786FF74
S315200003A03B197B6106E07B695A1C7A611B78180031
S315200003B0FFF797FF7B691B78002BF4D13B681B7CEA
S315200003C002211800FFF772FF0C23FB187B6106E061
S315200003D07B695A1C7A611B781800FFF782FF7B69BC
S315200003E01B78002BF4D1C046C046BD4607B090BD51
S315200003F01430002080B586B000AF786000F0F9F8A0
S315200004000C23FB18154A1168196092889A800121DD
S315200004100120FFF74BFF7B687B6106E07B695A1C56
S315200004207A611B781800FFF75CFF7B691B78002B2D
S31520000430F4D10C23FB187B6106E07B695A1C7A6198
S315200004401B781800FFF74DFF7B691B78002BF4D132
S31520000450C046C046BD4606B080BDC0461C30002002
S31520000460B0B58CB000AF204B022219000120FFF757
S31520000470B5FE14257B191D4A13CA13C303CA03C329
S3152000048012881A803B001A4A13CA13C311681960CE
S3152000049092889A8001210120FFF708FF7B19FB62D1
S315200004A006E0FB6A5A1CFA621B781800FFF719FF50
S315200004B0FB6A1B78002BF4D102210120FFF7F6FE00
S315200004C03B00FB6206E0FB6A5A1CFA621B781800A6
S315200004D0FFF707FFFB6A1B78002BF4D1C046C04606
S315200004E0BD460CB0B0BDC046930500202430002088
S315200004F03C30002080B582B000AF134B7B607B6818
S3152000050000221A6029231B02190A7B685A680902ED
S31520000510090A120E12060A435A607B689A68120E5E
S3152000052012069A607B6805221A60C0467B681B68A3
S31520000530DB03DB0FDBB2002BF8D07B6800221A60CE
S31520000540C046BD4602B080BD10E000E080B582B056
S3152000055000AF78607B68FA229100180001F026FF30
S3152000056003007B607B6801337B600AE0FFF7C2FFF4
S31520000570FFF7C0FFFFF7BEFFFFF7BCFF7B68013B1D
S315200005807B607B68002BF1D1C046C046BD4602B0D9
S3152000059080BD80B584B000AF78607B68FA22910078
S315200005A0180001F003FF03007B607B6801337B604A
S315200005B00023FB600AE0FFF79DFFFFF79BFFFFF795
S315200005C099FFFFF797FFFB680133FB607A681300FA
S315200005D05B019B1A9B009B18DB001A00FB68934269
S315200005E0E9D3C046C046BD4604B080BDF0DF7047A3
S315200005F0C046F1DF7047C046F2DF7047C046F3DFE2
S315200006007047C046F0B587B000AF78607B6800229F
S315200006109A5610257B191A707B6801229A560F214B
S315200006207B181A707B6802229A560E26BB191A70FE
S315200006307B6803229A560D203B181A703B181B78AC
S315200006405BB2DAB27B181B785BB2DBB2D31ADBB2B1
S315200006505BB2180000F053FA03001C00BB191B788C
S315200006605BB2DAB27B191B785BB2DBB2D31ADBB290
S315200006705BB2180000F043FA030001229C4201DC21
S3152000068000231A1CD2B214217B181A707B181B78EF
S31520000690002B0FD00F23FA181023FB181100180077
S315200006A000F044FA0D23FA180E23FB181100180047
S315200006B000F03CFA10217B1800229A560E203B1897
S315200006C01B785BB29A420DDD3A187B181100180090
S315200006D000F02CFA0D23FA180F23FB18110018002E
S315200006E000F024FA0E23FB181B785BB2DAB2102333
S315200006F0FB181B785BB2DBB2D31ADAB21323FB18D2
S315200007001A700D26BB191B785BB2DAB20F257B193E
S315200007101B785BB2DBB2D31ADBB25BB21222BC18F7
S31520000720180000F0ECF9030023701723FB180022B1
S315200007301A701623FB187A1912781A707B19002260
S315200007409A56BB191B785BB29A4201DA012201E064
S3152000075001235A421123FB181A701523FB18102265
S31520000760BA1812781A7065E01423FB181B78002B30
S3152000077019D01622BB181B787F2B2DD815217B1854
S315200007801B787F2B28D87B181B785BB23F2B23DC6A
S31520000790BB1800229A567B181B785BB219001000F2
S315200007A0FFF72AFF18E01522BB181B787F2B13D8DA
S315200007B016217B181B787F2B0ED87B181B785BB2F3
S315200007C03F2B09DCBB1800229A567B181B785BB29C
S315200007D019001000FFF710FF17217B181A78122333
S315200007E0FB181B78D318DAB27B181A707A181320E4
S315200007F03B18127852B21B785BB29A4211DB162450
S315200008003B191A781123FB181B78D318DAB23B1937
S315200008101A707B181A783B181B78D31ADAB27B1811
S315200008201A7015217B181B785BB2DBB20133DAB262
S315200008307B181A700E23FB181B785BB21522BA1888
S31520000840127852B29A428FDDC0461800BD4607B0D4
S31520000850F0BDF0B587B000AF786017257B197A68B0
S3152000086012781A701626BB197A6852781A701521D2
S315200008707B187A6892781A701423FB187A68D278D3
S315200008801A7010203B187A1912781A703B18BA1968
S3152000089012785A707B191A787B181B78D318DBB21A
S315200008A05AB20C243B191A703B19BA1912785A708D
S315200008B008243B193A1812881A803B1902210C2267
S315200008C0BA1812885A523B191800FFF79BFE7B195B
S315200008D01A7815217B181B78D318DBB25AB221005F
S315200008E07B181A70BB191A781423FB181B78D31897
S315200008F0DBB25AB27B18DA700C007B181800FFF7AF
S3152000090081FEBB191A781423FB181B78D318DBB287
S315200009105AB221007B185A707B187A1912781A70ED
S315200009200C007B181800FFF76DFE21007B187A1942
S3152000093012789A707B18BA191278DA707B18180018
S31520000940FFF760FEC0461800BD4607B0F0BDF0B503
S3152000095087B000AF78607B6800229A5610217B18FA
S315200009601A707B6801229A567B185A707B685B68DE
S315200009707B6128E07B6900229A560C203B181A706E
S315200009807B6901229A563B185A7008257B19102636
S31520000990BA1912881A807B19022104003A18128883
S315200009A05A527B191800FFF72DFE20003B18002213
S315200009B09A56BB191A703B1801229A56BB195A70BF
S315200009C07B695B687B617B69002BD3D1C0461800AD
S315200009D0BD4607B0F0BD80B588B000AF78607B68B3
S315200009E0DB68BB617B681B697B617B681B680C339A
S315200009F03B611F23FB1800221A702EE01F217B1853
S31520000A001B785B003A69D3181B785BB21A00BB6966
S31520000A109B18FB607B181B785B003A69D3185B78C0
S31520000A205BB21A007B699B18BB60FB68002B0EDB50
S31520000A30FB687F2B0BDCBB68002B08DBBB683F2BDE
S31520000A4005DCBA68FB6811001800FFF7D5FD1F21E9
S31520000A507B181A787B1801321A701F23FB181A7814
S31520000A607B681B681B689A42C8DBC046C046BD46E9
S31520000A7008B080BD80B588B000AF78607B68DB6841
S31520000A80BB617B681B697B617B681B680C333B61A0
S31520000A900023FB6128E0FB695B003A69D3181B78C9
S31520000AA05BB21A00BB699B18FB60FB695B003A6965
S31520000AB0D3185B785BB21A007B699B18BB60FB6816
S31520000AC0002B0EDBFB687F2B0BDCBB68002B08DBC7
S31520000AD0BB683F2B05DCBA68FB6811001800FFF7DE
S31520000AE08EFDFB690133FB617B681B681B68FA6915
S31520000AF09A42D0DBC046C046BD4608B080BD80B510
S31520000B0082B000AF0200FB1D1A70FB1D1B787F2BE5
S31520000B1005D9FB1D1B785B42DBB25BB202E0FB1DF5
S31520000B201B785BB21800BD4602B080BD80B584B08C
S31520000B3000AF786039607B6800229A560F217B18B7
S31520000B401A703B6800229A567B681A707B1800221E
S31520000B509A563B681A70C046BD4604B080BD000058
S31520000B60B0B584B000AF284B00221A71274B002263
S31520000B701A700F23FB1804221A700123BB6039E078
S31520000B800F23FB181B78002B38D0BB68180000F009
S31520000B9041F800F06FF8FB1D00221A7021E0FB1DC2
S31520000BA01B781B4AD35C19000F257B191B7804225E
S31520000BB0D41ABB68180000F0ADF803001A00124BD7
S31520000BC01A55114B1B790133DAB20F4B1A717B1967
S31520000BD01A787B19013A1A70FB1D1A78FB1D01320F
S31520000BE01A700A4B1B78FA1D12789A42D7D3BB6823
S31520000BF00133BB60BB68042BC2D900E0C046024B60
S31520000C001800BD4604B0B0BD0831002014310020C4
S31520000C101031002080B584B000AF7860144BFB60A3
S31520000C207B68042B1BD07B68042B1CD87B68032B8A
S31520000C3011D07B68032B16D87B68012B03D07B68E9
S31520000C40022B04D00FE0FB6810225A750CE0FB68DB
S31520000C5020225A7508E0FB6840225A7504E0FB689A
S31520000C6080225A7500E0C046C046BD4604B080BD0D
S31520000C70000C024080B582B000AF234B7B60FB1C8A
S31520000C807A68527C1A70FB1C1B780822134009D004
S31520000C901E4B1B785A1CD1B21C4A11701A001C4BD1
S31520000CA004219954FB1C1B780422134009D0174BAE
S31520000CB01B785A1CD1B2154A11701A00144B032105
S31520000CC09954FB1C1B780222134009D00F4B1B782A
S31520000CD05A1CD1B20D4A11701A000D4B022199549B
S31520000CE0FB1C1B780122134009D0084B1B785A1C89
S31520000CF0D1B2064A11701A00054B01219954C046FB
S31520000D00BD4602B080BDC046000C02401431002012
S31520000D101031002080B582B000AF786039607B68E2
S31520000D20013B7B603B68013B3B60054A7B689B003F
S31520000D30D2183B68D3181B781800BD4602B080BD78
S31520000D405430002080B582B000AF786039607A6870
S31520000D503B68934200DD13001800BD4602B080BDFB
S31520000D6080B582B000AF786039607A683B6893427C
S31520000D7000DA13001800BD4602B080BD80B500AF72
S31520000D801E4B18221A601E4B1A681D4B8021C90162
S31520000D900A431A601B4B1B681B4A1A80194B1B6897
S31520000DA0AA22D2015A80174B1B68184A9A60154B03
S31520000DB01B689B889AB2134B1B68FF210A4092B28C
S31520000DC09A80104B1B68DA680E4B1B681204120CB3
S31520000DD0DA600C4B1B68DA680A4B1B68AA210904E7
S31520000DE00A43DA600A4B1B68074A1A60084B1B68DD
S31520000DF0064A9A60C046BD4680BDC046303802408D
S31520000E0044380240CC2E00205555000055555555E6
S31520000E10D02E002080B584B000AF0F23FB1800220F
S31520000E201A70FFF79DFE0300BB600E23FB180022FD
S31520000E301A7015E00E23FB181A78FB1DB9688A5C18
S31520000E401A70FB1D1B78052B04D10F23FB180122DA
S31520000E501A700CE00E217B181A787B1801321A7052
S31520000E60BB681B790E22BA1812789A42E2D30F2356
S31520000E70FB181B78002B00D1D3E7C046C046BD46E1
S31520000E8004B080BDF0B585B000AF786039607B686E
S31520000E90DA680F217B181A707B68DB68DAB27B6808
S31520000EA01B685B68DBB2D318DAB20E203B181A70C7
S31520000EB07B681A690D243B191A707B681B69DAB2A4
S31520000EC07B681B689B68DBB2D318DAB20C257B19CA
S31520000ED01A703B68DA680B26BB191A703B68DB6808
S31520000EE0DAB23B681B685B68DBB2D318DAB20A2336
S31520000EF0FB181A703B681A690923FB181A703B689D
S31520000F001B69DAB23B681B689B68DBB2D318DAB27E
S31520000F100823FB181A707A180A23FB18127852B283
S31520000F201B785BB29A421BDC3A18BB19127852B274
S31520000F301B785BB29A4213DB3A1908217B18127888
S31520000F4052B21B785BB29A420ADC7A190923FB1843
S31520000F50127852B21B785BB29A4201DB012300E081
S31520000F600023DBB21800BD4605B0F0BD80B582B0C7
S31520000F7000AF78607B689B697A68100098477B6829
S31520000F80DA687B685B68D2187B68DA607B681A69E6
S31520000F907B689B68D2187B681A617B681800FFF70C
S31520000FA01AFDC046BD4602B080BD80B584B000AFF4
S31520000FB0F860B9607A60FB68BA685A60FB687A683C
S31520000FC09A60C046BD4604B080BD80B58CB000AFE7
S31520000FD078607B68DA682E217B181A807B68DB684C
S31520000FE09AB27B681B685B689BB2D3189AB22C2393
S31520000FF0FB181A807B681A692A23FB181A807B68DB
S315200010001B699AB27B681B689B689BB2D3189AB2FD
S315200010102823FB181A807B1800229B5E002B0ADCF3
S3152000102020217B182C4A12881A802423FB187A1830
S3152000103012881A803BE02C23FB1800229B5E802B13
S315200010400ADD20217B18254A12881A802423FB18C2
S315200010507A1812881A802AE02A23FB1800229B5E1F
S31520001060002B0ADC20217B181D4A12881A80242393
S31520001070FB187A1812881A8019E02823FB180022F8
S315200010809B5E402B0ADD20217B18164A12881A8087
S315200010902423FB187A1812881A8008E020217B184E
S315200010A000221A802423FB187A1812881A802423F7
S315200010B0FA1800231178FF200140FF2083430B43B9
S315200010C05278FF210A40120207490B401343181C8D
S315200010D0BD460CB080BDC04674300020783000205C
S315200010E07C30002080300020FF00FFFF80B582B0DA
S315200010F000AF786039607B6804225A607B680522DD
S3152000110052429A607B681B685B68002B00DA0133C9
S315200011105B105B4240331A007B68DA607B683422BE
S315200011201A613B6800225A603B6800229A603B683D
S315200011301B685B68002B00DA01335B105B4240338F
S315200011401A003B68DA603B683A221A61C046BD46FF
S3152000115002B080BDF0B585B000AF78603B00196065
S315200011607B68DA680F217B181A707B68DB68DAB235
S315200011707B681B685B68DBB2D318DAB20E203B189B
S315200011801A707B681A690D243B191A707B681B69D3
S31520001190DAB27B681B689B68DBB2D318DAB20C25FF
S315200011A07B191A700B26BB193A0012781A703B006D
S315200011B01B785BB2DAB23B009B785BB2DBB2D3180A
S315200011C0DAB20A23FB181A700922BB183A005278A1
S315200011D01A703B005B785BB2DAB23B00DB785BB21D
S315200011E0DBB2D318DAB20823FB181A707A180A234E
S315200011F0FB18127852B21B785BB29A421BDC3A1863
S31520001200BB19127852B21B785BB29A4213DB3A1999
S3152000121008217B18127852B21B785BB29A420ADCFC
S315200012207A190923FB18127852B21B785BB29A42BC
S3152000123001DB012300E00023DBB21800BD4605B028
S31520001240F0BD80B586B000AF78600A00FB1C1A702E
S31520001250FFF7CFF9374B022219000120FEF7BEFF18
S31520001260FB1C1B78002B01D0334B00E0334B3B613A
S315200012700823FB18324A03CA03C301210120FFF7C2
S3152000128015F83B697B6106E07B695A1C7A611B78FD
S315200012901800FFF726F87B691B78002BF4D1022172
S315200012A00120FFF703F80823FB187B6106E07B6922
S315200012B05A1C7A611B781800FFF713F87B691B7894
S315200012C0002BF4D17B68632B0BDD7B68642118002F
S315200012D001F07EF80300DBB23033DBB21800FFF7F3
S315200012E000F87B68092B10DD7B686421180001F06B
S315200012F07DF80B000A21180001F06AF80300DBB222
S315200013003033DBB21800FEF7ECFF7B680A211800A9
S3152000131001F06CF80B00DBB23033DBB21800FEF7BD
S31520001320E0FF084B1800FFF734F9C046BD4606B06B
S3152000133080BDC046930500208430002090300020D8
S315200013409C30002088130000B0B58CB000AF204B35
S31520001350022219000120FEF741FF14257B191D4AA0
S3152000136013CA13C303CA03C312781A703B001A4A5E
S3152000137013CA13C31168196092889A80012101202B
S31520001380FEF794FF7B19FB6206E0FB6A5A1CFA62A1
S315200013901B781800FEF7A5FFFB6A1B78002BF4D1FB
S315200013A002210120FEF782FF3B00FB6206E0FB6A7A
S315200013B05A1CFA621B781800FEF793FFFB6A1B780B
S315200013C0002BF4D1C046C046BD460CB0B0BDC046C9
S315200013D093050020A4300020BC30002090B589B0B1
S315200013E000AF7860396002210120FEF75FFF1424E8
S315200013F03B19314A03CA03C33B19FB6106E0FB696B
S315200014005A1CFA611B781800FEF76BFFFB691B78E4
S31520001410002BF4D17B68632B0BDD7B6864211800DD
S3152000142000F0D6FF0300DBB23033DBB21800FEF744
S3152000143058FF7B68092B10DD7B686421180000F0BB
S31520001440D5FF0B000A21180000F0C2FF0300DBB213
S315200014503033DBB21800FEF744FF7B680A21180000
S3152000146000F0C4FF0B00DBB23033DBB21800FEF70E
S3152000147038FF02210C20FEF719FF0C243B190F4AD6
S3152000148003CA03C33B19FB6106E0FB695A1CFA61D8
S315200014901B781800FEF725FFFB691B78002BF4D17B
S315200014A03B68DBB23033DBB21800FEF71AFFC046CA
S315200014B0BD4609B090BDC0469C300020D0300020EB
S315200014C0B0B58EB000AF7860396000237B6303230C
S315200014D0BB6203237B6204233B620423FB613B6ADA
S315200014E04022D31A5A00BB6A1900DB00CB1AD31844
S315200014F0002B00DA0733DB10BB6100233B6358E087
S315200015000023FB624FE03B6BDB00FA6AD3187B615A
S31520001510BA69BB6AD318DBB2FA6AD2B25343DAB2DB
S315200015203B6ADBB2D318DBB25AB210217B181A7091
S315200015307B6A0433DBB23A6BD2B25343DAB2FB692D
S31520001540DBB2D318DBB25AB27B185A70BB695AB2D7
S315200015500C257B191A707B1904225A707B699B0013
S315200015607A68D4187B182000190002231A0001F08B
S31520001570F7FA02237A19E31811000222180001F063
S31520001580EFFA7B693A68D31801221A707B699B00AF
S315200015907A68D3181800FFF75CF97B6B01337B63FD
S315200015A0FB6A0133FB62FB6A072BACDD3B6B013325
S315200015B03B633B6B032BA3DD7B6B1800BD460EB054
S315200015C0B0BDF0B5D3B000AFFFF7D8FBFFF70EF8EC
S315200015D0FEF74AFEC64BA42252009B18DB191800C0
S315200015E01E231A00002101F020FA0023A222520015
S315200015F0BA1813600323A0225200BA1813600023DE
S315200016009E225200BA18136001239C225200BA1857
S3152000161013600C239A225200BA181360FEF7E9FFD2
S31520001620FFF792FEFFF7F6FB0023A2225200BA181C
S3152000163013600323A0225200BA18136001239C22B0
S315200016405200BA1813600C239A225200BA1813605B
S315200016503C23FA185C23FB1811001800FFF730FF13
S3152000166003009E225200BA181360FEF7C2FF002321
S3152000167098225200BA181360AAE09D4BA422520069
S315200016809B18DA19982149007B181B68D3181B78F8
S31520001690002B00D195E07B181B68002B00DA07335E
S315200016A0DB10EC22BA18136098235B00FB181B682A
S315200016B0904A134004D5013B08225242134301337A
S315200016C0E822BA1813600323E4217A18136003234F
S315200016D0E022BA1813600423DC22B818036004231E
S315200016E0D82038180360BB181B684022D31A5A002A
S315200016F07B181B681900DB00CB1AD318002B00DAE5
S315200017000733DB10D4203A1813603B181A68E423F9
S31520001710FB181B68D318DBB2E822BA181268D2B2BB
S315200017205343DAB2DC23FB181B68DBB2D318DBB2D7
S315200017305AB2714BA42149005B18DB191A70E023B9
S31520001740FB181B680433DBB2EC22BA181268D2B23B
S315200017505343DAB2D823FB181B68DBB2D318DBB2AB
S315200017605AB2654B5B18DB195A703B181B685AB284
S31520001770624B5B18DB191A70604B08005B18DB198B
S3152000178004225A705C243B1998256D007A19126838
S31520001790920059490918C9190988D1523A197B1951
S315200017A01B6802219B00D318544A1218D21912889A
S315200017B05A523A197B191B689B00D3181800FFF759
S315200017C048F898225200BB181B680133BA181360D8
S315200017D098235B00FB181B681F2B00DC4DE7484B4A
S315200017E09B69474A10009847464B9B69454A10001B
S315200017F09847444A424B11001800FFF777FC424BAA
S31520001800022219000120FEF7E9FC404BA4225200D7
S315200018109B18DB193E4A13CA13C312681A600121AA
S315200018200120FEF743FD2C23FB1896225200BA18FE
S3152000183013600AE0962149007B181B685A1C791808
S315200018400A601B781800FEF74CFD96235B00FB18F8
S315200018501B681B78002BEDD19C235B00FB181B68B3
S31520001860DBB23033DBB21800FEF73BFDA0235B0072
S31520001870FB181A68A2235B00FB181B6811001800CE
S31520001880FFF7ACFDFFF76CF903008C2149007A18AD
S3152000189013602C23FF33FB1800221A707B181B6859
S315200018A01B79002B53D095235B00FB1800221A705E
S315200018B042E095235B00FB181A781820FF303B186E
S315200018C08C214900791809688A5C1A703B181B78A4
S315200018D0012B02D0032B1DD027E02C21FF317B18B2
S315200018E01B785BB2DBB2013BDAB27B181A701CE0C4
S315200018F0F4FEFFFF07000080E0FEFFFFDCFEFFFF97
S31520001900702F0020942F002093050020E4FEFFFF77
S31520001910D83000202C21FF317B181B785BB2DBB23C
S315200019200133DAB27B181A70C046952149007B181C
S315200019301A787B1801321A708C235B00FB181B68FF
S315200019401B7995225200BA1812789A42B1D3CA4B03
S315200019501B6A2C22FF32BA18127852B2D100C6481E
S3152000196000229847C44BDA68C34B5B68D318002B18
S315200019700FDDC14BDA68C04B5B68D218BE4B1B68C3
S315200019805B68D318802B04DCBB4BDB69BA4A10009A
S315200019909847BA4BDB69B94A10009847B64AB74B05
S315200019A011001800FFF76EFA031E00D173E0B34B47
S315200019B09B685BB21800FFF7A2F803005A42AF4BB0
S315200019C09A60AE4BDA68AC4BDB68D31A8824640085
S315200019D03A191360A84B1B685B6886225200B91817
S315200019E00B60BB181B680521180000F0F1FC0300F2
S315200019F01A003B191B68934204DAA04B0322524279
S31520001A005A6048E086235B00FB181B685B000521B3
S31520001A10180000F0DDFC03001A0088235B00FB1889
S31520001A201B68934204DA954B022252425A6032E0F6
S31520001A3086235B00FB181A6813005B009B180521A0
S31520001A40180000F0C5FC03001A0088235B00FB1871
S31520001A501B68934207DA894B5B68002B1BD1874BA7
S31520001A6001225A6017E086235B00FB181B689B0047
S31520001A700521180000F0ACFC03001A0088235B0047
S31520001A80FB181B68934203DA7C4B02225A6002E061
S31520001A907A4B03225A600C23FF33FB1800221A705C
S31520001AA0002392225200BA1813602EE2744BA4220D
S31520001AB052009B18DA19922149007B181B68D3180B
S31520001AC01B78002B00D119E25C23FB187A181268C8
S31520001AD092006A48D158FFF73DFB031E00D10DE264
S31520001AE0664BDB68DAB2654B1B685B68002B00DA55
S31520001AF001335B10DBB2D318DAB285235B00FB1807
S31520001B001A705E4B1B69DAB25C4B1B689B68002B14
S31520001B1000DA01335B10DBB2D318DAB20A23FF33C3
S31520001B20FB181A705C217B18922040003A18126824
S31520001B309200D356DAB279183B181B689B00CB1853
S31520001B4002331B785BB2002B00DA01335B105BB2E9
S31520001B50DBB2D318DAB284235B00FB181A705C213F
S31520001B607A18922040003B181B689B00D31801333B
S31520001B701B785BB2DAB279183B181B689B00CB182E
S31520001B8003331B785BB2002B00DA01335B105BB2A8
S31520001B90DBB2D318DAB20821FF317B181A708523FD
S31520001BA05B00FB181A7884235B00FB181B78D31A7A
S31520001BB0DAB2FB1DFF331A700A23FF33FB181A789B
S31520001BC07B181B78D31ADAB2BB1DFF331A702B4B46
S31520001BD01B685B685C22B91892225200BA181268F8
S31520001BE092008A180232127852B29B18002B00DA21
S31520001BF001335B10DCB2FB1DFF331B785BB2180090
S31520001C00FEF77DFF0300DBB2E31ADAB27B1DFF335A
S31520001C101A701A4B1B689B685C22B91892225200D4
S31520001C20BA18126892008A180332127852B29B1898
S31520001C30002B00DA01335B10DCB2BB1DFF331B78AF
S31520001C405BB21800FEF75BFF0300DBB2E31ADAB2E1
S31520001C503B1DFF331A707A1DFF323B1DFF3312786E
S31520001C6052B21B785BB29A420CDA044B5B685A423A
S31520001C70024B5A600BE0C046942F0020702F0020A4
S31520001C80F4FEFFFFE44B9B685A42E34B9A60E34B1A
S31520001C90A42252009B18DA19922464003B191B686F
S31520001CA0D31800221A70A22149007B181B680A3318
S31520001CB07A181360A0235B00FB181A687B181B6830
S31520001CC011001800FFF78AFB5C257B193A19126868
S31520001CD09200D356013B19000020FFF741F803007C
S31520001CE0FC26BA1913607A193B191B689B00D31876
S31520001CF001331B785BB2013B19000020FFF730F857
S31520001D000300F822BA1813607B193A191268920058
S31520001D10D35619007A193B191B689B00D318023336
S31520001D201B785BB2CB18013319007F20FFF70AF826
S31520001D300300F422BA1813607A193B191B689B001A
S31520001D40D31801331B785BB219007A193B191B682B
S31520001D509B00D31803331B785BB2CB1801331900D1
S31520001D603F20FEF7EFFF0300F022BA181360BB19DD
S31520001D701B6890225200BA18136028E0F823FB183B
S31520001D801B688E225200BA18136010E08E2464005D
S31520001D903B191A6890235B00FB181B68110018007A
S31520001DA0FEF72DFC3B191B6801333A1913608E236D
S31520001DB05B00FB181A68F023FB181B689A42E5DDC6
S31520001DC090225200BB181B680133BA181360902367
S31520001DD05B00FB181A68F423FB181B689A42CDDDBA
S31520001DE09E2149007B181B68013B7A1813600C233F
S31520001DF0FF33FB1801221A707B181B68002B00DDAD
S31520001E008BE09C225200BB181B680133BA18136062
S31520001E10FEF7EFFB824B022219000120FEF7DEF9C6
S31520001E20804BA42252009B18DB197F4A13CA13C386
S31520001E3012681A6001210120FEF738FA1023FB18D8
S31520001E4096225200BA1813600AE0962149007B18A0
S31520001E501B685A1C79180A601B781800FEF741FA8D
S31520001E6096256D007B191B681B78002BEDD16F4BD7
S31520001E70A42252009B18DB196D4A13CA13C3128879
S31520001E801A8002210120FEF711FA3B007A1913600D
S31520001E900AE0962149007B181B685A1C79180A60AB
S31520001EA01B781800FEF71DFA96235B00FB181B68AB
S31520001EB01B78002BEDD1FA23DB001800FEF769FB17
S31520001EC09A225200BB181B680A2B03DDBB181B681D
S31520001ED0053B00E00A239A225200BA1813603C23DD
S31520001EE0FA185C23FB1811001800FFF7E9FA030023
S31520001EF09E225200BA181360FFF7B7FB92225200B7
S31520001F00BB181B680133BA18136092235B00FB18B9
S31520001F101B681F2B00DCC9E500E0C0463E4B1800BD
S31520001F20FFF753F8031C1A1C424BA42149005B18E7
S31520001F30DB191A803F4B0A009B18DB191B78002BF4
S31520001F4053D03C4B9B18DB195B785BB2752B08D0C2
S31520001F504ADC722B17D047DC642B21D06C2B09D09E
S31520001F6042E02D4B01221A612B4B9B685A422A4B89
S31520001F709A603AE0284B0122DA60274B5B685A4286
S31520001F80254B5A6031E0244B1B685B687F22D21AAE
S31520001F90214BDA60204B5B685A421F4B5A6024E083
S31520001FA0A02464003B191B68013B3A1913603B19B6
S31520001FB01A68A2256D007B191B6811001800FFF70F
S31520001FC00DFA3B191B68002B07DC7B191B680021C7
S31520001FD01800FFF736F9FFF721FBFA239B001800BC
S31520001FE0FEF7D7FAFFF741FBC0469C235B00FB18A0
S31520001FF01B68022B20DD9E235B00FB181B68002B31
S315200020001ADCA2235B00FB181B6801211800FFF7CE
S3152000201018F9FFF703FBC046702F0020F4FEFFFFE0
S3152000202093050020C8FEFFFFE8300020B8FEFFFF22
S31520002030F8300020D8FEFFFF9A235B00FB181B68B0
S315200020401800FEF7A6FA1DE40B4A08B503461068E9
S3152000205028B10A4903448B4207D8136008BD0848B3
S315200020600649106003448B42F7D900F0F7FC0C2395
S3152000207003604FF0FF3008BD1831002000440020D7
S3152000208000400020134B144A10B5144C00219342F3
S315200020902160044603D2D21A184600F0C6FC204618
S315200020A00F4C00F089F8216800234868022219465F
S315200020B000F060FA2068002319460222806800F0AA
S315200020C059FA20680023BDE81040C068022219464C
S315200020D000F050BA083100206C3200201831002060
S315200020E0C42F002000F072B8431E012B084601D9E8
S315200020F000207047114600F099B800BF0B4608B182
S31520002100002070471146184600F06EB84FF0FF3099
S31520002110704700BF4FF0FF30704700BF0020704768
S31520002120002070470138012801D90020704700F0AF
S3152000213095B800BF184B194A596C194841F010013F
S3152000214010B45964196B41F001011963596A41F0C1
S3152000215010015962596A21F010015962196941F03A
S3152000216001011961196921F001011961536A43F4CA
S31520002170EE635362136843F420131360D36840F26E
S31520002180D92442F20C0143F48013D36084605DF8B5
S31520002190044BC160704700BF003802400000024077
S315200021A000100140034B186810F020001CBF58682F
S315200021B0C0B2704700100140034B002040F2D922E4
S315200021C09A605861186170470010014008B5044BA9
S315200021D01B68986800F0BAF9024B0022DA6008BD45
S315200021E0C42F002000100140094A00B58646002071
S315200021F013689B0608D5536813F0FF03F44603D0F3
S315200022000CF8013B0130E6468842F1D15DF804FB2B
S3152000221000100140044A13681B06FCD50A285060AA
S3152000222001D10D20F7E7704700100140844608468B
S3152000223089B1094A00B50CEB010E1CF8011B136885
S315200022401B06FCD50A29516001D10D21F7E7E64589
S31520002250F3D15DF804FB7047001001400120704760
S31520002260164B17481A6B174942F0180210B41A6316
S315200022705C6C44F480445C641C6944F018041C6162
S315200022801C6924F018041C615C6944F480445C6178
S315200022905C6924F480445C6100224FF0AA3302601A
S315200022A05DF8044BC36042608260026142610A604D
S315200022B0CB604A608A600A614A61704700380240F2
S315200022C000100240000C0240334A344813680021B3
S315200022D043F0010382B013609160136823F0847386
S315200022E023F4803313605060136823F48023136033
S315200022F0D16000910191136843F48033136003E0A9
S31520002300009BB3F5A04F09D0136803F40033019363
S31520002310009B01330093019B002BF1D01E4B1B68C1
S3152000232013F4003318BF01230193019B012B01D025
S3152000233002B07047184B1A491A6C1A4842F080525C
S315200023401A640A6842F440420A609A689A609A6857
S3152000235042F400429A609A6842F4A0529A60586009
S315200023601A6842F080721A601A689201FCD50E4AE9
S3152000237040F205611160996821F00301996099681E
S3152000238041F00201A2F580629960936803F00C0384
S31520002390082BFAD102B070470038024010300024D2
S315200023A00070004008544008003C0240002902D03A
S315200023B0B0FBF1F0704708B14FF0FF3000F01EB8C7
S315200023C00029F8D00246B0FBF1F000FB112170473E
S315200023D0002902D090FBF1F070470028C8BF6FF0AB
S315200023E00040B8BF4FF0004000F008B80029F4D0F4
S315200023F0024690FBF1F000FB11217047704700BFA9
S31520002400B1F90C20F8B5160705460C4651D44B6891
S31520002410002B02DC0B6C002B49DDE66A002E46D031
S31520002420002312F480522F682B6031D0626DA3896D
S31520002430590705D56368D21A636B0BB1236CD21A80
S315200024400023E66A216A2846B047421CB4F90C30BC
S3152000245006D129681D2945D8274ACA40D60741D51D
S3152000246000226260D9042269226004D5421C01D16F
S315200024702B6803B96065616B2F60C1B104F1440319
S31520002480994202D0284600F079FB002363630EE0D0
S31520002490216A01232846B0470246501CC7D12B6823
S315200024A0002BC4D01D2B01D0162B19D12F60002054
S315200024B01DE00F69002FFAD093070E6808BF4B69FD
S315200024C00F6018BF0023F61B8B60002EEFDD216AFC
S315200024D0D4F828C033463A462846E047002807DC89
S315200024E0B4F90C3043F04003A3814FF0FF30F8BD20
S315200024F00744361AE9E700BF0100402038B50B69CA
S3152000250005460C4613B90025284638BD18B1036A7E
S315200025100BB900F0DBF9B4F90C30002BF3D0626E66
S31520002520D00704D4990502D4A06D00F0A2FA28465B
S315200025302146FFF765FF636EDA070546E4D4A389D3
S315200025409B05E1D4A06D00F09AFADDE7014620B99B
S31520002550044A0549054800F0EDB9054B1868FFF710
S31520002560CDBF00BFB82F0020FD240020C82F00209B
S31520002570C42F00202DE9F7431D46574B1F680446FC
S315200025800E46904627B13B6A13B9384600F09EF9AD
S31520002590B8F1020F06D0B8F1010F00F29A80002D93
S315200025A0C0F29780636ED90705D4A3899A0502D411
S315200025B0A06D00F05EFA21463846FFF79FFF616B5B
S315200025C041B104F14403994202D0384600F0D6FACC
S315200025D0002363630023A3616360A3891B0603D5DD
S315200025E02169384600F0CAFAA38923F44A6323F006
S315200025F00303B8F1020FA38161D001AB6A462146DD
S31520002600384600F0B5F9A3891843A0812DBB009D5B
S31520002610284600F0FDFA0646002852D1DDF8009043
S31520002620A94540D14FF0FF35B4F90C3043F00202F2
S31520002630A2810022A26004F14702226022610122C7
S315200026406261626ED60704D4980502D4A06D00F0AC
S3152000265016FA284603B0BDE8F083002ED8D03B6A90
S3152000266013B9384600F032F9B8F1010F08BFA38933
S31520002670266004BF43F00103A381B4F90C3013F0A4
S315200026800802C4E904651ED0D90741BF00226D4265
S31520002690A260A56158BFA560626ED20701D49B05D2
S315200026A013D50025D5E7484600F0B2FA064600289D
S315200026B0B8D0A38943F08003A3814D46CFE70025F8
S315200026C0B2E7A946F5E7A260E6E7A06D00F0D7F9E4
S315200026D0E7E74FF0FF35BCE7C42F0020002310B5F5
S315200026E00446C0E90033C0E9043383608181436630
S315200026F0C2818361194608225C3000F096F90D4BA1
S3152000270063620D4BA3620D4BE3620D4B23630D4BAE
S3152000271024629C4206D003F16802944202D0D03350
S315200027209C4205D104F15800BDE8104000F09DB947
S3152000273010BD00BF8D2D0020B32D0020EB2D0020D5
S31520002740112E00201C310020024A0349034800F0C4
S31520002750F1B800BFB82F0020FD240020C82F00208C
S3152000276041680C4B994210B5044601D0FFF7C6FECE
S31520002770A168094B994202D02046FFF7BFFEE168C7
S31520002780064B994204D02046BDE81040FFF7B6BE5E
S3152000279010BD00BF1C31002084310020EC31002008
S315200027A008B54B6EDA0705D48B899B0502D4886D54
S315200027B000F05FF9002008BD08B54B6EDA0705D496
S315200027C08B899B0502D4886D00F059F9002008BD3D
S315200027D00C4B0D4A0D4810B504211A600022FFF754
S315200027E07DFF0A4B01221C46092103F16800FFF7F1
S315200027F075FF04F1D0000222BDE810401221FFF738
S315200028006DBF00BF54320020492700201C31002014
S31520002810014800F02EB900BF5F320020014800F0C9
S315200028202EB900BF5F320020F8B50746FFF7F0FF4C
S31520002830234B1B680BB9FFF7CBFF224ED6E9013499
S31520002840013B0FD53568002D38D14FF4D671384667
S3152000285000F010FA044628BB3060FFF7DFFF0C2398
S315200028603B601BE0B4F90C50D5B9174BE36004F17B
S315200028705800656600F0F9F8FFF7D0FFC4E9015566
S31520002880C4E904552560A5610822294604F15C00A7
S3152000289000F0CBF8C4E90D55C4E912552046F8BD21
S315200028A06834CDE70423056043600C302946A060D8
S315200028B04FF4D07200F0B9F8254634602E46BDE7B5
S315200028C054320020B82F00200100FFFF10B5044627
S315200028D0FFF79EFF236A1BB1BDE81040FFF79EBF9E
S315200028E0044B2362044B1B68002BF5D1FFF770FFC6
S315200028F0F2E700BF612700205432002008B5FFF719
S3152000290087FFBDE80840024A0249002000F012B8BD
S31520002910B82F0020A127002008B5044A044900202A
S3152000292000F008F8BDE80840FFF778BFB82F002070
S31520002930B92700202DE9F843074688461446002685
S31520002940D4E90195B9F1010905D52468002CF7D100
S315200029503046BDE8F883AB89012B07D9B5F90E308F
S31520002960013303D029463846C04706436835E9E790
S3152000297070B50C46B1F90E10002996B015461E46C4
S315200029800ADAA18911F0800113D14FF48062002068
S3152000299031602A6016B070BD6A4600F0CFF8002874
S315200029A0EFDB019901F47041A1F5005359425941D9
S315200029B0EBE700214022EAE78B8973B59E0705469F
S315200029C00C4607D504F14703236023610123636185
S315200029D002B070BD01AB6A46FFF7CAFF009E2846CB
S315200029E0314600F047F9B4F90C3038B99A05EFD4DE
S315200029F023F0030343F00203A381E3E743F08003BC
S31520002A00A381019B2060C4E90406002BE0D0B4F921
S31520002A100E10284600F012F80028D9D0A38923F0FA
S31520002A20030343F00103A381D2E702440346934202
S31520002A3000D1704703F8011BF9E7000038B5064DB1
S31520002A400023044608462B60FFF76CFB431C02D18B
S31520002A502B6803B1236038BD60320020014B186813
S31520002A60704700BFC42F00207047704770477047DB
S31520002A7070477047012070470120704770477047A4
S31520002A802D4B1B68834270B5044653D0C3691BB3D4
S31520002A90DB6863B10025E369DB685959B1B90435B0
S31520002AA0802DF8D1E3692046D96800F067F8E369FC
S31520002AB0196811B1204600F061F8E3699D685DB19F
S31520002AC0294620462D6800F059F8F8E70E6820467A
S31520002AD000F054F83146E1E7616911B1204600F073
S31520002AE04DF8E16911B1204600F048F8216B11B18B
S31520002AF0204600F043F8616B11B1204600F03EF805
S31520002B00A16B11B1204600F039F8A16C11B1204615
S31520002B1000F034F8616C11B1204600F02FF8E16A1C
S31520002B2011B1204600F02AF8236A1BB12046BDE8E1
S31520002B307040184770BD00BFC42F002038B5074D20
S31520002B4000230446084611462B60FFF7E7FA431C8C
S31520002B5002D12B6803B1236038BD00BF603200204C
S31520002B600A44914200F1FF3300D1704710B511F8A5
S31520002B70014B03F8014F9142F9D110BD38B50546F6
S31520002B80002941D051F8043C0C1F002BB8BFE41893
S31520002B9000F0F0F81D4A136833B9636014602846C4
S31520002BA0BDE8384000F0ECB8A34208D920682118C7
S31520002BB08B4201BF19685B6809182160EDE71A4648
S31520002BC05B680BB1A342FAD911685018A0420BD109
S31520002BD020680144501883421160E0D118685B6870
S31520002BE0536008441060DAE702D90C232B60D6E73D
S31520002BF0206821188B4204BF19685B68636004BF94
S31520002C00091821605460CAE738BD00BF6832002029
S31520002C10024B0146186800F02DB800BFC42F0020D3
S31520002C20024B01461868FFF7A9BF00BFC42F00203A
S31520002C3070B50F4E0C463168054611B900F010F9F3
S31520002C4030602146284600F00BF9431C03D14FF093
S31520002C50FF34204670BDC41C24F00304A042F8D0E3
S31520002C60211A284600F0FCF80130F2D1EFE700BF28
S31520002C70643200202DE9F843CD1C25F003050835E4
S31520002C800C2D38BF0C25002D064601DBA94204D9A0
S31520002C900C2333600020BDE8F883DFF8D48000F0F1
S31520002CA069F8D8F800301C4644BB29463046FFF761
S31520002CB0BFFF431C044658D1D8F800402746002FB2
S31520002CC043D1002C4BD023683946304604EB030908
S31520002CD000F0C6F8814542D121686D1A2946304652
S31520002CE0FFF7A6FF01303AD023682B442360D8F89B
S31520002CF000305A6862BBC8F800700FE02268521B89
S31520002D0020D40B2A17D96119A342256018BF596010
S31520002D10636808BFC8F8001062514B60304600F067
S31520002D202FF804F10B00231D20F00700C21A1CBF48
S31520002D301B1AA350AFE76268A3420CBFC8F8002055
S31520002D405A60EBE723466468AEE73C467F68B6E701
S31520002D501A465B68A342FBD100235360DEE70C23AF
S31520002D603360304600F00CF894E70560D6E700BFE4
S31520002D70683200200148FFF77CBE00BF5C3200208D
S31520002D800148FFF77CBE00BF5C32002010B50C4620
S31520002D90B1F90E1000F052F80028ABBF636DA3897D
S31520002DA01B1823F48053ACBF6365A38110BD00209C
S31520002DB070472DE9F0411F468B89DB0505460C46F9
S31520002DC0164605D5B1F90E100223002200F024F88C
S31520002DD0A389B4F90E1023F48053A38132463B46CF
S31520002DE02846BDE8F04100F04BB810B50C46B1F9C5
S31520002DF00E1000F011F8B4F90C30421C0BBF23F46E
S31520002E00805343F48053A381A38118BF606510BD0E
S31520002E10B1F90E1000F046B838B5074D04460846FD
S31520002E20114600222A601A46FFF77AF9431C02D17E
S31520002E302B6803B1236038BD6032002038B5074DBA
S31520002E4004460846114600222A601A46FFF756F91C
S31520002E50431C02D12B6803B1236038BD60320020A9
S31520002E6038B5064D0023044608462B60FFF7ECF8DC
S31520002E70431C02D12B6803B1236038BD6032002089
S31520002E8038B5074D04460846114600222A601A46E0
S31520002E90FFF72AF9431C02D12B6803B1236038BD02
S31520002EA06032002038B5064D0023044608462B60C4
S31520002EB0FFF72CF9431C02D12B6803B1236038BDE0
S31520002EC060320020000C024000100240000C02403C
S31520002ED00010024010E000E00C000000040000009A
S31520002EE004000000000100020100010101020103AB
S31520002EF00200020102020203030103020000000095
S31520002F00000000000000000000000000000000009B
S31520002F10000000000000000000000000000000008B
S31520002F20000000000A0000000A0000000200000065
S31520002F30000001000200030004000500060007004F
S31520002F40080009000000000000000000000000004A
S31520002F50000000000000000000000000000000004B
S31520002F60000000000000000000000000000000003B
S31520002F70D82E002000000000000000000100000004
S31520002F8001000000D7090020750A00206D0F0020DF
S31520002F90AB0F0020242F00200000000000000000BE
S31520002FA03B0000003A000000D7090020750A0020E7
S31520002FB06D0F0020AB0F0020000000000300000072
S31520002FC01C310020C82F0020000000001C310020EA
S31520002FD084310020EC3100200000000000000000B9
S31520002FE000000000000000000000000000000000BB
S31520002FF000000000000000000000000000000000AB
S31520003000000000000000000000000000000000009A
S315200030100000000053636F72653A200077696E7373
S315200030202100000057656C636F6D6520746F205317
S3152000303075706572706F6E6721000000507265733F
S3152000304073203520746F2073746172742E00000013
S31520003050290000000102030A0405060B0708090CD3
S315200030600E000F0D0102030A0405060B0708090CC2
S315200030700E000F0D016C00000172000001750000AA
S3152000308001640000596F752057696E210000000009
S3152000309047616D65204F76657221000053636F721C
S315200030A0653A200057656C636F6D6520746F20420A
S315200030B07265616B6F757421000000005072657334
S315200030C073203520746F2073746172742E00000093
S315200030D04C697665733A2000427265616B6F757430
S315200030E0202D204C766C20004C6576656C20436F35
S315200030F06D706C65746521004E657874204C65761C
S31520003100656C2E2E2E00000000000000000000003E
S315200031100000000000000000000000000000000089
S315200031200000000000000000000000000000000079
S315200031300000000000000000000000000000000069
S315200031400000000000000000000000000000000059
S70520000000DA
